{
  "_format": "hh-sol-artifact-1",
  "contractName": "Faucet",
  "sourceName": "contracts/Faucet.sol",
  "abi": [
    {
      "inputs": [
        {
          "internalType": "address",
          "name": "_tokenAddress",
          "type": "address"
        }
      ],
      "stateMutability": "payable",
      "type": "constructor"
    },
    {
      "anonymous": false,
      "inputs": [
        {
          "indexed": true,
          "internalType": "address",
          "name": "from",
          "type": "address"
        },
        {
          "indexed": true,
          "internalType": "uint256",
          "name": "amount",
          "type": "uint256"
        }
      ],
      "name": "Deposit",
      "type": "event"
    },
    {
      "anonymous": false,
      "inputs": [
        {
          "indexed": true,
          "internalType": "address",
          "name": "to",
          "type": "address"
        },
        {
          "indexed": true,
          "internalType": "uint256",
          "name": "amount",
          "type": "uint256"
        }
      ],
      "name": "Withdrawl",
      "type": "event"
    },
    {
      "inputs": [],
      "name": "getBalance",
      "outputs": [
        {
          "internalType": "uint256",
          "name": "",
          "type": "uint256"
        }
      ],
      "stateMutability": "view",
      "type": "function"
    },
    {
      "inputs": [],
      "name": "lockTime",
      "outputs": [
        {
          "internalType": "uint256",
          "name": "",
          "type": "uint256"
        }
      ],
      "stateMutability": "view",
      "type": "function"
    },
    {
      "inputs": [],
      "name": "requestTokens",
      "outputs": [],
      "stateMutability": "nonpayable",
      "type": "function"
    },
    {
      "inputs": [
        {
          "internalType": "uint256",
          "name": "_amount",
          "type": "uint256"
        }
      ],
      "name": "setLockTime",
      "outputs": [],
      "stateMutability": "nonpayable",
      "type": "function"
    },
    {
      "inputs": [
        {
          "internalType": "uint256",
          "name": "_amount",
          "type": "uint256"
        }
      ],
      "name": "setWithdrawlAmount",
      "outputs": [],
      "stateMutability": "nonpayable",
      "type": "function"
    },
    {
      "inputs": [],
      "name": "token",
      "outputs": [
        {
          "internalType": "contract IERC20",
          "name": "",
          "type": "address"
        }
      ],
      "stateMutability": "view",
      "type": "function"
    },
    {
      "inputs": [],
      "name": "withdrawl",
      "outputs": [],
      "stateMutability": "nonpayable",
      "type": "function"
    },
    {
      "inputs": [],
      "name": "withdrawlAmount",
      "outputs": [
        {
          "internalType": "uint256",
          "name": "",
          "type": "uint256"
        }
      ],
      "stateMutability": "view",
      "type": "function"
    },
    {
      "stateMutability": "payable",
      "type": "receive"
    }
  ],
  "bytecode": "0x60806040526802b5e3af16b1880000600255603c60035560405161103438038061103483398181016040528101906100379190610121565b80600160006101000a81548173ffffffffffffffffffffffffffffffffffffffff021916908373ffffffffffffffffffffffffffffffffffffffff160217905550336000806101000a81548173ffffffffffffffffffffffffffffffffffffffff021916908373ffffffffffffffffffffffffffffffffffffffff1602179055505061014e565b600080fd5b600073ffffffffffffffffffffffffffffffffffffffff82169050919050565b60006100ee826100c3565b9050919050565b6100fe816100e3565b811461010957600080fd5b50565b60008151905061011b816100f5565b92915050565b600060208284031215610137576101366100be565b5b60006101458482850161010c565b91505092915050565b610ed78061015d6000396000f3fe60806040526004361061007f5760003560e01c80633aedfb8b1161004e5780633aedfb8b14610167578063ae04d45d1461017e578063f4644300146101a7578063fc0c546a146101d0576100ca565b80630967294f146100cf5780630d668087146100fa57806312065fe014610125578063359cf2b714610150576100ca565b366100ca57343373ffffffffffffffffffffffffffffffffffffffff167fe1fffcc4923d04b559f4d29a8bfc6cda04eb5b0d3c460751c2402c5c5cc9109c60405160405180910390a3005b600080fd5b3480156100db57600080fd5b506100e46101fb565b6040516100f191906109aa565b60405180910390f35b34801561010657600080fd5b5061010f610201565b60405161011c91906109aa565b60405180910390f35b34801561013157600080fd5b5061013a610207565b60405161014791906109aa565b60405180910390f35b34801561015c57600080fd5b506101656102aa565b005b34801561017357600080fd5b5061017c610571565b005b34801561018a57600080fd5b506101a560048036038101906101a091906109f6565b61081c565b005b3480156101b357600080fd5b506101ce60048036038101906101c991906109f6565b6108c0565b005b3480156101dc57600080fd5b506101e561096b565b6040516101f29190610aa2565b60405180910390f35b60025481565b60035481565b6000600160009054906101000a900473ffffffffffffffffffffffffffffffffffffffff1673ffffffffffffffffffffffffffffffffffffffff166370a08231306040518263ffffffff1660e01b81526004016102649190610ade565b602060405180830381865afa158015610281573d6000803e3d6000fd5b505050506040513d601f19601f820116820180604052508101906102a59190610b0e565b905090565b600073ffffffffffffffffffffffffffffffffffffffff163373ffffffffffffffffffffffffffffffffffffffff1603610319576040517f08c379a000000000000000000000000000000000000000000000000000000000815260040161031090610bbe565b60405180910390fd5b600254600160009054906101000a900473ffffffffffffffffffffffffffffffffffffffff1673ffffffffffffffffffffffffffffffffffffffff166370a08231306040518263ffffffff1660e01b81526004016103779190610ade565b602060405180830381865afa158015610394573d6000803e3d6000fd5b505050506040513d601f19601f820116820180604052508101906103b89190610b0e565b10156103f9576040517f08c379a00000000000000000000000000000000000000000000000000000000081526004016103f090610c2a565b60405180910390fd5b600460003373ffffffffffffffffffffffffffffffffffffffff1673ffffffffffffffffffffffffffffffffffffffff1681526020019081526020016000205442101561047b576040517f08c379a000000000000000000000000000000000000000000000000000000000815260040161047290610ce2565b60405180910390fd5b600354426104899190610d31565b600460003373ffffffffffffffffffffffffffffffffffffffff1673ffffffffffffffffffffffffffffffffffffffff16815260200190815260200160002081905550600160009054906101000a900473ffffffffffffffffffffffffffffffffffffffff1673ffffffffffffffffffffffffffffffffffffffff1663a9059cbb336002546040518363ffffffff1660e01b815260040161052b929190610d65565b6020604051808303816000875af115801561054a573d6000803e3d6000fd5b505050506040513d601f19601f8201168201806040525081019061056e9190610dc6565b50565b60008054906101000a900473ffffffffffffffffffffffffffffffffffffffff1673ffffffffffffffffffffffffffffffffffffffff163373ffffffffffffffffffffffffffffffffffffffff16146105ff576040517f08c379a00000000000000000000000000000000000000000000000000000000081526004016105f690610e3f565b60405180910390fd5b600160009054906101000a900473ffffffffffffffffffffffffffffffffffffffff1673ffffffffffffffffffffffffffffffffffffffff166370a08231306040518263ffffffff1660e01b815260040161065a9190610ade565b602060405180830381865afa158015610677573d6000803e3d6000fd5b505050506040513d601f19601f8201168201806040525081019061069b9190610b0e565b3373ffffffffffffffffffffffffffffffffffffffff167f65ac0d8bb8cbc0e989ebd02ddc5161d7c499f7c21792e43fcf170314fe6bcc3f60405160405180910390a3600160009054906101000a900473ffffffffffffffffffffffffffffffffffffffff1673ffffffffffffffffffffffffffffffffffffffff1663a9059cbb33600160009054906101000a900473ffffffffffffffffffffffffffffffffffffffff1673ffffffffffffffffffffffffffffffffffffffff166370a08231306040518263ffffffff1660e01b81526004016107789190610ade565b602060405180830381865afa158015610795573d6000803e3d6000fd5b505050506040513d601f19601f820116820180604052508101906107b99190610b0e565b6040518363ffffffff1660e01b81526004016107d6929190610d65565b6020604051808303816000875af11580156107f5573d6000803e3d6000fd5b505050506040513d601f19601f820116820180604052508101906108199190610dc6565b50565b60008054906101000a900473ffffffffffffffffffffffffffffffffffffffff1673ffffffffffffffffffffffffffffffffffffffff163373ffffffffffffffffffffffffffffffffffffffff16146108aa576040517f08c379a00000000000000000000000000000000000000000000000000000000081526004016108a190610e3f565b60405180910390fd5b603c816108b79190610e5f565b60038190555050565b60008054906101000a900473ffffffffffffffffffffffffffffffffffffffff1673ffffffffffffffffffffffffffffffffffffffff163373ffffffffffffffffffffffffffffffffffffffff161461094e576040517f08c379a000000000000000000000000000000000000000000000000000000000815260040161094590610e3f565b60405180910390fd5b670de0b6b3a7640000816109629190610e5f565b60028190555050565b600160009054906101000a900473ffffffffffffffffffffffffffffffffffffffff1681565b6000819050919050565b6109a481610991565b82525050565b60006020820190506109bf600083018461099b565b92915050565b600080fd5b6109d381610991565b81146109de57600080fd5b50565b6000813590506109f0816109ca565b92915050565b600060208284031215610a0c57610a0b6109c5565b5b6000610a1a848285016109e1565b91505092915050565b600073ffffffffffffffffffffffffffffffffffffffff82169050919050565b6000819050919050565b6000610a68610a63610a5e84610a23565b610a43565b610a23565b9050919050565b6000610a7a82610a4d565b9050919050565b6000610a8c82610a6f565b9050919050565b610a9c81610a81565b82525050565b6000602082019050610ab76000830184610a93565b92915050565b6000610ac882610a23565b9050919050565b610ad881610abd565b82525050565b6000602082019050610af36000830184610acf565b92915050565b600081519050610b08816109ca565b92915050565b600060208284031215610b2457610b236109c5565b5b6000610b3284828501610af9565b91505092915050565b600082825260208201905092915050565b7f52657175657374206d757374206e6f74206f726967696e6174652066726f6d2060008201527f61207a65726f206163636f756e74000000000000000000000000000000000000602082015250565b6000610ba8602e83610b3b565b9150610bb382610b4c565b604082019050919050565b60006020820190508181036000830152610bd781610b9b565b9050919050565b7f496e73756666696369656e742062616c616e636520696e206661756365740000600082015250565b6000610c14601e83610b3b565b9150610c1f82610bde565b602082019050919050565b60006020820190508181036000830152610c4381610c07565b9050919050565b7f496e73756666696369656e742074696d6520656c61707365642073696e63652060008201527f6c6173742077697468647261776c202d2074727920616761696e206c6174657260208201527f2e00000000000000000000000000000000000000000000000000000000000000604082015250565b6000610ccc604183610b3b565b9150610cd782610c4a565b606082019050919050565b60006020820190508181036000830152610cfb81610cbf565b9050919050565b7f4e487b7100000000000000000000000000000000000000000000000000000000600052601160045260246000fd5b6000610d3c82610991565b9150610d4783610991565b9250828201905080821115610d5f57610d5e610d02565b5b92915050565b6000604082019050610d7a6000830185610acf565b610d87602083018461099b565b9392505050565b60008115159050919050565b610da381610d8e565b8114610dae57600080fd5b50565b600081519050610dc081610d9a565b92915050565b600060208284031215610ddc57610ddb6109c5565b5b6000610dea84828501610db1565b91505092915050565b7f596f7520617265206e6f74206f776e6572000000000000000000000000000000600082015250565b6000610e29601183610b3b565b9150610e3482610df3565b602082019050919050565b60006020820190508181036000830152610e5881610e1c565b9050919050565b6000610e6a82610991565b9150610e7583610991565b9250828202610e8381610991565b91508282048414831517610e9a57610e99610d02565b5b509291505056fea264697066735822122041189d0bb831328b606411b0831d07d6c37d6c20f595c7bb6dec5cb927cbb47364736f6c63430008110033",
  "linkReferences": {},
  "deployedLinkReferences": {}
}